:100000000A128A11382D00308A000408840A8207F7
:10001000003420342034203443345934543452349E
:100020004F344E342034543445344334483420342F
:100030000A342034473453344D3420344D344F3453
:10004000443445344D34203454344334333435341B
:10005000003449346E34733465347234743420346B
:100060006E3475346D3462346534723420340A343D
:10007000003468346F346D346534703461346734FF
:100080006534003465346E34643420346334613450
:100090006C346C340034633461346C346C3420342C
:1000A0006F346E3400344134543420340D34003411
:1000B000413454340D340034413454344434003425
:10088E00F0007008831203138800080052344934B4
:10089E004E3447344F344B3464008001840A0406CE
:1008AE00031900340406542CF1010314F10D003029
:1008BE000A128A116B250A128A110800C030F5003F
:1008CE007508F10000300A128A116B250A128A117E
:1008DE000800F0007018742C782C831203138616FF
:1008EE007B2C8312031386120800F0007018802CE4
:1008FE00842C831203130616872C831203130612FD
:10090E000800F0008A2C831203130C1E8F2C902CDF
:10091E008A2C912C700899000800F6007608F500D4
:10092E007508F10001300A128A116B250A128A111C
:10093E000800F60076088038F5007508F1000030E2
:10094E000A128A116B250A128A110800B62C07307A
:10095E00F3007D30F200F20BB22CF30BB22C01300F
:10096E00F0020030031CF103F102FF307106031D8B
:10097E00C22CFF307006031DC52CC62CAE2CC72C06
:10098E0008000310003003180130F1008316031322
:10099E0018158130990083120313981718168316B1
:1009AE0003139816831203131A08F0007008F1004F
:1009BE001A08F0007008F1000800F200F72C720817
:1009CE0084000A128A1103200A128A110A128A114D
:1009DE0088240A128A110130F1007108F207F72CEF
:1009EE00720884000A128A1103200A128A11003832
:1009FE00031D022D032DE62C042D080001300A12D2
:100A0E008A1170240A128A116230F6006530F500E0
:100A1E00F50B0F2DF60B0F2D142D3830F500750834
:100A2E00F10000300A128A116B250A128A11063063
:100A3E00F5007508F10000300A128A116B250A12B2
:100A4E008A110C30F5007508F10000300A128A1177
:100A5E006B250A128A110A128A115B240A128A1154
:100A6E000800FB01FC018313203084003A300A1287
:100A7E008A1153240A128A110A128A114D240A125B
:100A8E008A11BA000A128A114E240A128A11BB0068
:100A9E000A128A114F240A128A11BC000A128A11F4
:100AAE0050240A128A11BD000A128A1151240A1208
:100ABE008A11BE000A128A1152240A128A11BF002C
:100ACE0083010A128A11472EF40074080A128A1141
:100ADE007C240A128A1171080A128A1147240A12FA
:100AEE008A1101300A128A1170240A128A110730F3
:100AFE00F3007D30F200F20B822DF30B822D0030CD
:100B0E000A128A1170240A128A110D30F300FB307A
:100B1E00F200F20B902DF30B902D952D00300A1252
:100B2E008A117C240A128A1100300A128A11472473
:100B3E000A128A110800F800D52D780884000A12CE
:100B4E008A1103200A128A110A3A0319AF2DB02D09
:100B5E00BD2D780884000A128A1103200A128A1108
:100B6E000D3A031DBB2DBC2DC32DBD2D0A128A11AE
:100B7E0065240A128A11D02D780884000A128A116F
:100B8E0003200A128A110A128A1194240A128A1157
:100B9E00D02D0130F7007708F807D52D780884009E
:100BAE000A128A1103200A128A110038031DE02D41
:100BBE00E12DA42DE22D080054300A128A11E424EE
:100BCE000A128A110A128A115B240A128A11213022
:100BDE000A128A11A2250A128A110A128A11B32642
:100BEE000A128A113B300A128A1188240A128A11BB
:100BFE00122E0718032E042E122E062E062E071C5A
:100C0E00092E0A2E062E0B2E0D300A128A1188245A
:100C1E000A128A11192E831203138718172E182EF3
:100C2E00002E192E0A128A115B240A128A114330E1
:100C3E000A128A11A2250A128A11252E8312031373
:100C4E0087182A2E2B2E252E2C2E0A128A115B2463
:100C5E000A128A113A300A128A11A2250A128A1130
:100C6E000D300A128A1188240A128A11D030F0002F
:100C7E000730F1000A128A11AD240A128A110800F7
:100C8E000310003003180130F90003100030031870
:100C9E000130FA0083120313850186018701880152
:100CAE00890111308316031385000F3086009F30A3
:100CBE008700880189010A128A1105250A128A11F4
:100CCE000A128A11C8240A128A110A128A115B2486
:100CDE000A128A1101300A128A11A2250A128A11E9
:100CEE00E830F0000330F1000A128A11AD240A1226
:100CFE008A110A128A115B240A128A114B300A12C7
:100D0E008A11E4240A128A11E830F0000330F1004F
:100D1E000A128A11AD240A128A110A128A115B2450
:100D2E000A128A1131300A128A11A2250A128A1168
:100D3E00A02E831203130718A52EA62EA02E0A127C
:100D4E008A11E3250A128A11A02EA02EA02EAF2EF4
:100D5E00AF2E0A128A11002803100030031801303A
:100D6E00FB000A307B02031CBD2EBE2E2C2FFF2F44
:100D7E00FF2F2C2F0719C42EC52EE72E6430F0003E
:100D8E000030F1000A128A11AD240A128A11CF2EF8
:100D9E0083120313071DD42ED52ECF2ED62E7C08EC
:100DAE00093A031DDB2EDC2EE12E0930F700770801
:100DBE00FC00242F0130F7007708FC07242F242F86
:100DCE008719EA2EEB2E0B2F6430F0000030F10065
:100DDE000A128A11AD240A128A11F52E83120313F8
:100DEE00871DFA2EFB2EF52EFC2EFC08031D002F60
:100DFE00012F072F0310003003180130FC00242FA1
:100E0E000130FC02242F242F87180E2F0F2F1B2F9B
:100E1E0050300A128A11E4240A128A110930F7009E
:100E2E007708FB00332F242F7C08303E0A128A11DC
:100E3E0094240A128A11242F242F7B08C03E0A12F2
:100E4E008A11A0240A128A112C2F83120313071A57
:100E5E00312F322FC12E332FF430F0000130F1003C
:100E6E000A128A11AD240A128A11D42F3E2F831230
:100E7E000313071E432F442F3E2F452F30300A12E7
:100E8E008A1188240A128A11F42F4D2F831203130C
:100E9E00071E522F532F4D2F542F31300A128A1105
:100EAE0088240A128A11F42F5C2F83120313071E53
:100EBE00612F622F5C2F632F32300A128A11882421
:100ECE000A128A11F42F6B2F83120313071E702F31
:100EDE00712F6B2F722F33300A128A1188240A1247
:100EEE008A11F42F7A2F83120313071E7F2F802F60
:100EFE007A2F812F34300A128A1188240A128A110D
:100F0E00F42F892F83120313071E8E2F8F2F892FF5
:100F1E00902F35300A128A1188240A128A11F42F62
:100F2E00982F83120313071E9D2F9E2F982F9F2FEE
:100F3E0036300A128A1188240A128A11F42FA72F2A
:100F4E0083120313071EAC2FAD2FA72FAE2F3730F2
:100F5E000A128A1188240A128A11F42FB62F8312CC
:100F6E000313071EBB2FBC2FB62FBD2F38300A120E
:100F7E008A1188240A128A11F42FC52F83120313A3
:100F8E00071ECA2FCB2FC52FCC2F39300A128A112C
:100F9E0088240A128A11F42FF42F7C08003A0319C0
:100FAE003E2F013A03194D2F033A03195C2F013AD4
:100FBE0003196B2F073A03197A2F013A0319892F58
:100FCE00033A0319982F013A0319A72F0F3A031961
:100FDE00B62F013A0319C52FF42F0130F700770809
:100FEE00FB070A307B02031CFD2FFE2F2C2FFF2F39
:020FFE000800E9
:02400E00323F3F
:00000001FF
