:100000000A128A114A2E00308A000408840A8207E4
:10001000003420342034203443345934543452349E
:100020004F344E342034543445344334483420342F
:100030000A342034473453344D3420344D344F3453
:10004000443445344D34203454344334333435341B
:1000500000342034533457343134203474346F3402
:100060002034633461346C346C340D3420345334B4
:1000700057343234203474346F342034683461346B
:100080006E346734003441345434443430343134C1
:100090003234353436343534313434343534333421
:1000A0003B340D34003445344E344434203443342E
:1000B00041344C344C340034433441344C344C34AB
:1000C00049344E34473400344134543420340D34F0
:0200D0000034FA
:100BFE00F00070088312031388000800F10103143B
:100C0E00F10D00300A128A11E3260A128A11080029
:100C1E00C030F5007508F10000300A128A11E32683
:100C2E000A128A110800F00070181E2E222E83124E
:100C3E0003138616252E8312031386120800F00066
:100C4E0070182A2E2E2E831203130616312E83129F
:100C5E00031306120800F000342E831203130C1E29
:100C6E00392E3A2E342E3B2E700899000800F600CD
:100C7E007608F5007508F10001300A128A11E32694
:100C8E000A128A110800A001A101A201A301A40168
:100C9E00A501A601A701A801A90183010A128A11C3
:100CAE005B2F612E0730F3007D30F200F20B5D2ECC
:100CBE00F30B5D2E0130F0020030031CF103F10244
:100CCE00FF307106031D6D2EFF307006031D702E52
:100CDE00712E592E722E08000310003003180130A9
:100CEE00F100831603131815813099008312031334
:100CFE0098171816831603139816831203131A08DF
:100D0E00F0007008F1001A08F0007008F1000800F9
:100D1E00F200A22E720884000A128A1103200A120F
:100D2E008A110A128A1132260A128A110130F10032
:100D3E007108F207A22E720884000A128A1103208B
:100D4E000A128A110038031DAD2EAE2E912EAF2E33
:100D5E00080001300A128A111A260A128A1162300C
:100D6E00F6006530F500F50BBA2EF60BBA2EBF2E37
:100D7E003830F5007508F10000300A128A11E326AA
:100D8E000A128A110630F5007508F10000300A12B9
:100D9E008A11E3260A128A110C30F5007508F1004B
:100DAE0000300A128A11E3260A128A110A128A11D7
:100DBE0005260A128A110800F40074080A128A1114
:100DCE0026260A128A1171080A128A11FF250A12A2
:100DDE008A1101300A128A111A260A128A11073054
:100DEE00F3007D30F200F20BFA2EF30BFA2E0030E8
:100DFE000A128A111A260A128A110D30F300FB30DC
:100E0E00F200F20B082FF30B082F0D2F00300A12F1
:100E1E008A1126260A128A1100300A128A11FF251B
:100E2E000A128A110800F8004D2F780884000A1261
:100E3E008A1103200A128A110A3A0319272F282F22
:100E4E00352F780884000A128A1103200A128A119B
:100E5E000D3A031D332F342F3B2F352F0A128A11D3
:100E6E000F260A128A11482F780884000A128A1156
:100E7E0003200A128A110A128A113E260A128A11B8
:100E8E00482F0130F7007708F8074D2F78088400B7
:100E9E000A128A1103200A128A110038031D582FD4
:100EAE00592F1C2F5A2F0800031000300318013041
:100EBE00F9000310003003180130FA0083120313F7
:100ECE00850186018701880189011130831603137C
:100EDE0085000F3086009F308700880189010A1235
:100EEE008A11B0260A128A110A128A1173260A1260
:100EFE008A110A128A1105260A128A1101300A1263
:100F0E008A111A270A128A11E830F0000330F10014
:100F1E000A128A1158260A128A110A128A110526F5
:100F2E000A128A115C300A128A118F260A128A114D
:100F3E00E830F0000330F1000A128A1158260A1226
:100F4E008A110A128A1105260A128A1121300A12F2
:100F5E008A111A270A128A11B42F83120313071843
:100F6E00B92FBA2FB42F3B300A128A118F260A12CC
:100F7E008A110A128A1105260A128A1154300A128F
:100F8E008A111A270A128A11CC2F8312031387187B
:100F9E00D12FD22FCC2FD32F0D300A128A113226F9
:100FAE000A128A110A128A1105260A128A114B3068
:100FBE000A128A111A270A128A11D030F00007304D
:100FCE00F1000A128A1158260A128A110A128A117F
:100FDE0005260A128A1121300A128A111A270A12BC
:100FEE008A11B42FB42FB42FFC2FFC2F0A128A11A2
:020FFE000028C9
:02400E00323F3F
:00000001FF
