:100000000A128A119D2B00308A000408840A820794
:10001000003420342034203443345934543452349E
:100020004F344E342034543445344334483420342F
:100030000A342034473453344D3420344D344F3453
:10004000443445344D34203454344334333435341B
:10005000003431343D3472346534613464342034D6
:1000600032343D34633463346C340D3433343D34D2
:10007000753470342034203434343D3464346F3477
:1000800077346E34003472346534613464346934E6
:100090006E3467342034733477343234203463342C
:1000A00063346C340034413454342B3443344D3491
:1000B000473446343D3431340D3400344134543403
:1000C0002B3443344D34473452343D3400344134BE
:0800D000543420340D340034D7
:10065600F00070088312031388000800640080010C
:10066600840A0406031900340406322BF10103142C
:10067600F10D00300A128A113D240A128A1108006F
:10068600C030F5007508F10000300A128A113D24C9
:100696000A128A110800F0007018522B562B83128A
:1006A60003138616592B8312031386120800F000D3
:1006B60070185E2B622B831203130616652B8312AA
:1006C600031306120800F000682B831203130C1E96
:1006D6006D2B6E2B682B6F2B700899000800F600A7
:1006E6007608F5007508F10001300A128A113D24DA
:1006F6000A128A110800F60076088038F500750897
:10070600F10000300A128A113D240A128A110800EB
:1007160083120313981C902B912B952B18121816E5
:10072600952B952B8C1E982B992B952B9A2B1A086B
:100736009C2B080083132E3084003B300A128A114A
:1007460031230A128A11A0308400DC300A128A1181
:1007560031230A128A1183010A128A11F22EBB2B47
:100766000730F3007D30F200F20BB72BF30BB72BFB
:100776000130F0020030031CF103F102FF30710674
:10078600031DC72BFF307006031DCA2BCB2BB32BC3
:10079600CC2B08000310003003180130F10083163B
:1007A600031318158130990083120313981718162E
:1007B600831603139816831203131A08F0007008A1
:1007C600F1001A08F0007008F1000800F200FC2B96
:1007D600720884000A128A1103200A128A110A1268
:1007E6008A1166230A128A110130F1007108F20794
:1007F600FC2B720884000A128A1103200A128A113D
:100806000038031D072C082CEB2B092C080001309F
:100816000A128A114E230A128A116230F6006530D6
:10082600F500F50B142CF60B142C192C3830F500AA
:100836007508F10000300A128A113D240A128A1145
:100846000630F5007508F10000300A128A113D24C1
:100856000A128A110C30F5007508F10000300A12F0
:100866008A113D240A128A110A128A1139230A12A0
:100876008A110800F40074080A128A115A230A120F
:100886008A1171080A128A112B230A128A11013061
:100896000A128A114E230A128A110730F3007D309C
:1008A600F200F20B542CF30B542C00300A128A116E
:1008B6004E230A128A110D30F300FB30F200F20BC0
:1008C600622CF30B622C672C00300A128A115A2311
:1008D6000A128A1100300A128A112B230A128A116F
:1008E6000800F800A72C780884000A128A11032051
:1008F6000A128A110A3A0319812C822C8F2C780845
:1009060084000A128A1103200A128A110D3A031D65
:100916008D2C8E2C952C8F2C0A128A1143230A12A9
:100926008A11A22C780884000A128A1103200A125E
:100936008A110A128A1172230A128A11A22C013014
:10094600F7007708F807A72C780884000A128A119E
:1009560003200A128A110038031DB22CB32C762C00
:10096600B42C0800710870040319BA2CBB2CF12CA6
:10097600F5010314F50DCB2C01300310F00DF10D2C
:10098600FF3E031DC02C0130F4007408F507CB2C84
:10099600F11FCE2CCF2CBF2CD12CD12C7108730279
:1009A600031DD72C70087202031CDA2CDB2CE22CF8
:1009B6007008F2027108031CF303F302E22C013003
:1009C6000310F10CF00CFF3E031DE32C0130F50281
:1009D600031DEE2CEF2CD12CF12CF12C7308F10118
:1009E600F1077208F001F007F82C08000030F50056
:1009F6000030F600710870040319022D032D412DF5
:100A0600F7010314F70D132D01300310F00DF10D4E
:100A1600FF3E031D082D0130F4007408F707132D5F
:100A2600F11F162D172D072D192D192D0130031025
:100A3600F50DF60DFF3E031D1A2D71087302031DF9
:100A4600262D70087202031C292D2A2D322D7008BE
:100A5600F2027108031CF303F3027514322D013000
:100A66000310F10CF00CFF3E031D332D0130F7028D
:100A7600031D3E2D3F2D192D412D412D7608F101E7
:100A8600F1077508F001F007482D08000310003043
:100A96000318013083120313B800522D522D0A1287
:100AA6008A118B230A128A112B3A031D5B2D5C2DAA
:100AB600522D5F2D5F2D5F2D0A128A118B230A128C
:100AC6008A11333A031D682D692D5F2D6C2D6C2D0F
:100AD6006C2D0A128A118B230A128A11323A031DCF
:100AE600752D762D6C2D792D792D792D0A128A1179
:100AF6008B230A128A110A3A031D822D832D792D22
:100B06009D2D9D2D8C1E882D892D9D2D0130F90042
:100B16007908B8070A128A118B230A128A11F9007A
:100B2600831203133808A03E8400790883138000DB
:100B36009D2D9D2D831203133808A03E8400831338
:100B460000080D3A031DA82DA92D852DAA2D0A12E0
:100B56008A1139230A128A113B300A128A11742427
:100B66000A128A1140300A128A117E230A128A1149
:100B760083120313B8010314B80DD22D3808A03E12
:100B86008400831300080A128A1172230A128A113A
:100B96000130F900790883120313B807D22D3808FB
:100BA600A03E8400831300080D3A031DDB2DDC2DC7
:100BB600C12DDE2DDE2D8718E12DE22DDE2DE32D54
:100BC6000A128A1139230A128A1121300A128A114D
:100BD60074240A128A11EF2D83120313871CF42D35
:100BE600F52DEF2DF62D080083120313AA002030F1
:100BF60084002E30FA000408FB000A30FC007A0854
:100C0600840083130008FD00FA0A7B0884007D082F
:100C16008000FB0AFC0B022E1030F0002730F1009A
:100C26007908F301F3077808F201F2070A128A112C
:100C3600F9240A128A11710883120313A901A9075C
:100C46007008A801A8071030F0002730F1007908D5
:100C5600F301F3077808F201F2070A128A11B524A4
:100C66000A128A11710883120313A701A7077008D5
:100C7600A601A607E830F0000330F1002708F301CB
:100C8600F3072608F201F2070A128A11B5240A129E
:100C96008A11710883120313A501A5077008A40120
:100CA600A407E830F0000330F1002708F301F3074A
:100CB6002608F201F2070A128A11F9240A128A1189
:100CC600710883120313A701A7077008A601A607D8
:100CD6006430F0000030F1002508F301F307240822
:100CE600F201F2070A128A11B5240A128A11710852
:100CF60083120313A301A3077008A201A20764309D
:100D0600F0000030F1002508F301F3072408F20192
:100D1600F2070A128A11F9240A128A11710883123B
:100D26000313A501A5077008A401A4070A30F00063
:100D36000030F1002308F301F3072208F201F2075D
:100D46000A128A11B5240A128A1171088312031332
:100D5600A101A1077008A001A0070A30F000003029
:100D6600F1002308F301F3072208F201F2070A1241
:100D76008A11F9240A128A11710883120313A30136
:100D8600A3077008A201A20706302A02031CCC2E74
:100D9600CD2ED22E0530FA007A08AA00D22EAA0845
:100DA600031DD62ED72ED92EF12EF12E2A08FA00A3
:100DB6007A07FE3E203E840083130008303E0A1266
:100DC6008A1172230A128A11013083120313AA02AE
:100DD600AA08031DEF2EF02ED92EF12E080083123D
:100DE6000313AD010314AD0D85018601870188014A
:100DF600890111308316031385000F3086009F305A
:100E06008700880189010A128A110A240A128A11A6
:100E16000A128A11CD230A128A110A128A1139235B
:100E26000A128A1101300A128A1174240A128A11CE
:100E3600E830F0000330F1000A128A11B2230A12D8
:100E46008A110A128A1139230A128A115F300A128C
:100E56008A11E9230A128A11E830F0000330F10002
:100E66000A128A11B2230A128A110A128A11392326
:100E76000A128A1121300A128A1174240A128A115E
:100E86004B300A128A11E9230A128A11E830F0005F
:100E96000330F1000A128A11B2230A128A1156305F
:100EA6000A128A11E9230A128A11592F831203138F
:100EB60007185E2F5F2F782F2D08303E0A128A11F1
:100EC60066230A128A110D300A128A1166230A1243
:100ED6008A110A128A1149250A128A1156300A12F3
:100EE6008A11E9230A128A11592F87187B2F7C2F22
:100EF600992F7E2F7E2F871C812F822F7E2F832F67
:100F06000D300A128A1166230A128A11E830F0009F
:100F16000330F1000A128A11B2230A128A115630DE
:100F26000A128A11E9230A128A11592F07199C2FCE
:100F36009D2FC92F9F2F9F2F071DA22FA32F9F2FB6
:100F4600A42F2D08143A031DA92FAA2FAF2F143052
:100F5600AB002B08AD00B42F0130AB002B08AD075A
:100F6600B42F0A128A1139230A128A118312031323
:100F76002D08AB00AC012B08F8002C08F900023054
:100F86000A128A11F7250A128A11592F8719CC2FAE
:100F9600CD2F592FCF2FCF2F871DD22FD32FCF2F26
:100FA600D42F2D08013A031DD92FDA2FDE2FAD01DC
:100FB6000314AD0DE12F0130AD02E12F0A128A11A3
:100FC60039230A128A11831203132D08AB00AC01D0
:100FD6002B08F8002C08F90002300A128A11F725AE
:100FE6000A128A11592F592F592F592F592F592F14
:0A0FF600FC2FFC2F0A128A110028BC
:02400E00323F3F
:00000001FF
