:100000000A128A11DF2D00308A000408840A820750
:10001000003420342034203443345934543452349E
:100020004F344E342034543445344334483420342F
:100030000A342034473453344D3420344D344F3453
:10004000443445344D34203454344334333435341B
:100050000034773461346934743469346E3467340D
:100060002034633461346C346C340D3461346E3458
:100070006434203473346D34733400344134543474
:100080002B3443344E344D3449343D3431342C34E4
:1000900031342C3432343B340D3400344134543454
:0600A00020340D34003491
:100B1800F000700883120313880008006400800145
:100B2800840A0406031900340406932DF101031402
:100B3800F10D00300A128A118B260A128A11080058
:100B4800C030F5007508F10000300A128A118B26B2
:100B58000A128A110800F0007018B32DB72D8312FD
:100B680003138616BA2D8312031386120800F000A9
:100B78007018BF2DC32D831203130616C62D8312BA
:100B8800031306120800F000C92D831203130C1E6C
:100B9800CE2DCF2DC92DD02D700899000800F60054
:100BA8007608F5007508F10001300A128A118B26C3
:100BB8000A128A110800FC01FD0183132030840009
:100BC80048300A128A1192250A128A1183010A12E0
:100BD8008A11032F83120313981CF32DF42DF82D7B
:100BE80018121816F82DF82D8C1EFB2DFC2DF82D3B
:100BF800FD2D1A08FF2D0800092E0730F3007D305F
:100C0800F200F20B052EF30B052E0130F002003036
:100C1800031CF103F102FF307106031D152EFF308E
:100C28007006031D182E192E012E1A2E0800031007
:100C3800003003180130F1008316031318158130B2
:100C4800990083120313981718168316031398161E
:100C5800831203131A08F0007008F1001A08F00054
:100C68007008F1000800F2004A2E720884000A1287
:100C78008A1103200A128A110A128A11C7250A1238
:100C88008A110130F1007108F2074A2E72088400B7
:100C98000A128A1103200A128A110038031D552EE0
:100CA800562E392E572E080001300A128A11AF2508
:100CB8000A128A116230F6006530F500F50B622ED3
:100CC800F60B622E672E3830F5007508F1000030FB
:100CD8000A128A118B260A128A110630F500750845
:100CE800F10000300A128A118B260A128A110C3080
:100CF800F5007508F10000300A128A118B260A12D5
:100D08008A110A128A119A250A128A110800F40017
:100D180074080A128A11BB250A128A1171080A126C
:100D28008A118C250A128A1101300A128A11AF25FC
:100D38000A128A110730F3007D30F200F20BA22E5E
:100D4800F30BA22E00300A128A11AF250A128A115B
:100D58000D30F300FB30F200F20BB02EF30BB02E87
:100D6800B52E00300A128A11BB250A128A110030EA
:100D78000A128A118C250A128A110800F800F52E29
:100D8800780884000A128A1103200A128A110A3A82
:100D98000319CF2ED02EDD2E780884000A128A116E
:100DA80003200A128A110D3A031DDB2EDC2EE32ED6
:100DB800DD2E0A128A11A4250A128A11F02E78084B
:100DC80084000A128A1103200A128A110A128A114F
:100DD800D3250A128A11F02E0130F7007708F80798
:100DE800F52E780884000A128A1103200A128A1143
:100DF8000038031D002F012FC42E022F08000310F6
:100E0800003003180130FB000310003003180130D4
:100E1800FA0083120313850186018701880189017D
:100E280011308316031385000F3086009F3087002A
:100E3800880189010A128A1158260A128A110A128F
:100E48008A111B260A128A110A128A119A250A1275
:100E58008A1101300A128A11C2260A128A11E83050
:100E6800F0000330F1000A128A1100260A128A11D2
:100E78000A128A119A250A128A1146300A128A1110
:100E880037260A128A11E830F0000330F1000A12FE
:100E98008A1100260A128A1136300A128A11372658
:100EA8000A128A11E830F0000330F1000A128A11A0
:100EB80000260A128A110A128A119A250A128A1120
:100EC80021300A128A11C2260A128A116B2F0310C6
:100ED800003003180130FB00031000300318013004
:100EE800FA00952F0130F9007908FB070A128A11D8
:100EF800EE250A128A11F9007B08203E8400790841
:100F0800831380007B08203E840000080A3A031DF2
:100F18008E2F8F2F952F0130F9007908FA07952F1A
:100F2800952F7A08023A031D9A2F9B2F762F9C2F14
:100F38000A128A119A250A128A11A22F8312031300
:100F48002508523A031DA92FAA2FCC2F0530F900E6
:100F58007908FB0009307B02031CB32FB42FB62F8E
:100F6800A22FA22F7B08203E8400831300080A12B8
:100F78008A11D3250A128A110130F9007908FB0772
:100F880009307B02031CC92FCA2FB62FA22FA22F0C
:100F98008312031325082B3A031DD32FD42FA22F16
:100FA8000530F9007908FB0013307B02031CDD2FA4
:100FB800DE2FE02FA22FA22F7B08203E8400831370
:100FC80000080A128A11D3250A128A110130F90081
:100FD8007908FB0713307B02031CF32FF42FE02F53
:100FE800A22FA22FA22FA22FA22F6B2F6B2FFC2F85
:080FF800FC2F0A128A110028E7
:02400E00323F3F
:00000001FF
