:100000000A128A115D2D00308A000408840A8207D2
:10001000003420342034203443345934543452349E
:100020004F344E342034543445344334483420342F
:100030000A342034473453344D3420344D344F3453
:10004000443445344D34203454344334333435341B
:100050000034633468346F346F347334653420345F
:1000600074346534733474340D3473347734333406
:100070003D346F346B3420347334773434343D344E
:100080006F34663466340034413454342B34433492
:100090005334433441343D342B34363430343134EA
:1000A0003634323439343934393439343034323402
:1000B0000D34003453344D34533420346D346F34A4
:1000C0006434653420340D34203470347234653433
:1000D00073347334203473347734313400347334EC
:1000E000773431343D34733465346E3464342034C1
:1000F0000D347334773432343D34633461346E34C8
:10010000633465346C340034703472346534703464
:100110006134723469346E3467340D3420343034D1
:100120003134363420346D346F3464346534003403
:10013000413454342B3443344D34473453343D34F8
:100140003034313432343534363435343134343477
:10015000353433340034633461346E34633465349D
:100160006C340D34773461346934743469346E34EA
:1001700067340034413454342B3443344D344734E1
:1001800046343D3431340D340034733465346E34C8
:10019000643469346E3467340034733465346E34D7
:1001A00064346534643400346534723472346F34CA
:1001B000723400344134543420340D3400344F341C
:1001C0004634463400340D340D3400344F344B344F
:0201D0000034F9
:1009FA00F000700883120313880008006400800165
:100A0A00840A0406031900340406042DF1010314B0
:100A1A00F10D00300A128A1107260A128A110800FB
:100A2A00C030F5007508F10000300A128A11072655
:100A3A000A128A110800F0007018242D282D83123A
:100A4A00031386162B2D8312031386120800F00057
:100A5A007018302D342D831203130616372D831286
:100A6A00031306120800F0003A2D831203130C1E1A
:100A7A003F2D402D3A2D412D700899000800F600AF
:100A8A007608F5007508F10001300A128A11072666
:100A9A000A128A110800F60076088038F5007508EF
:100AAA00F10000300A128A1107260A128A11080078
:100ABA008313203084003E300A128A1103250A1259
:100ACA008A1183010A128A117F2E83120313981C3A
:100ADA006F2D702D742D18121816742D742D8C1EEE
:100AEA00772D782D742D792D1A087B2D0800852DE8
:100AFA000730F3007D30F200F20B812DF30B812DCC
:100B0A000130F0020030031CF103F102FF307106DC
:100B1A00031D912DFF307006031D942D952D7D2DFB
:100B2A00962D08000310003003180130F1008316D7
:100B3A000313181581309900831203139817181696
:100B4A00831603139816831203131A08F000700809
:100B5A00F1001A08F0007008F1000800F200C62D32
:100B6A00720884000A128A1103200A128A110A12D0
:100B7A008A1138250A128A110130F1007108F20728
:100B8A00C62D720884000A128A1103200A128A11D9
:100B9A000038031DD12DD22DB52DD32D08000130DB
:100BAA000A128A1120250A128A116230F60065306B
:100BBA00F500F50BDE2DF60BDE2DE32D3830F500B2
:100BCA007508F10000300A128A1107260A128A11E2
:100BDA000630F5007508F10000300A128A1107265E
:100BEA000A128A110C30F5007508F10000300A1259
:100BFA008A1107260A128A110A128A110B250A1269
:100C0A008A110800F40074080A128A112C250A12A3
:100C1A008A1171080A128A11FD240A128A110130F6
:100C2A000A128A1120250A128A110730F3007D3030
:100C3A00F200F20B1E2EF30B1E2E00300A128A113E
:100C4A0020250A128A110D30F300FB30F200F20B54
:100C5A002C2EF30B2C2E312E00300A128A112C2541
:100C6A000A128A1100300A128A11FD240A128A1104
:100C7A000800F800712E780884000A128A110320ED
:100C8A000A128A110A3A03194B2E4C2E592E780849
:100C9A0084000A128A1103200A128A110D3A031DCE
:100CAA00572E582E5F2E592E0A128A1115250A120E
:100CBA008A116C2E780884000A128A1103200A12FB
:100CCA008A110A128A1144250A128A116C2E0130DD
:100CDA00F7007708F807712E780884000A128A113B
:100CEA0003200A128A110038031D7C2E7D2E402E05
:100CFA007E2E08000310003003180130FB00031099
:100D0A00003003180130FA008312031385018601AB
:100D1A0087018801890111308316031385000F307A
:100D2A0086009F308700880189010A128A11D4251A
:100D3A000A128A110A128A1197250A128A110A12AC
:100D4A008A110B250A128A1101300A128A113E26CB
:100D5A000A128A11E830F0000330F1000A128A11EF
:100D6A007C250A128A110A128A110B250A128A1183
:100D7A00D2300A128A11B3250A128A11E830F00019
:100D8A000330F1000A128A117C250A128A110A120A
:100D9A008A110B250A128A11D22E80300A128A1160
:100DAA0050250A128A1152300A128A113E260A1254
:100DBA008A11831203130718E32EE42ED22E0A1285
:100DCA008A110B250A128A117C300A128A113E26D0
:100DDA000A128A11B2300A128A11B3250A128A112A
:100DEA00E830F0000330F1000A128A117C250A1259
:100DFA008A113C300A128A11B3250A128A11E83084
:100E0A00F0000330F1000A128A117C250A128A11B5
:100E1A0090300A128A11B3250A128A11F430F000AE
:100E2A000130F1000A128A117C250A128A110D304A
:100E3A000A128A1138250A128A11232F0A128A11D4
:100E4A006A250A128A11F9007908FB007B08453ADB
:100E5A00031D302F312F402F0A128A110B250A1237
:100E6A008A11CC300A128A113E260A128A11232FBD
:100E7A00402F232F232F0A128A110B250A128A11B7
:100E8A0021300A128A113E260A128A114C2F831225
:100E9A0003130719512F522F672F542F542F071D51
:100EAA00572F582F542F592FDE300A128A11B32583
:100EBA000A128A11DE300A128A113E260A128A1191
:100ECA00822F4C2F87196A2F6B2F4C2F6D2F6D2F66
:100EDA00871D702F712F6D2F722FD7300A128A112A
:100EEA00B3250A128A11D7300A128A113E260A122B
:100EFA008A11822F4C2F4C2F4C2F0A128A110B2544
:100F0A000A128A1167300A128A113E260A128A11B7
:100F1A008E2F831203130718932F942FCD2F1A3075
:100F2A000A128A1138250A128A110A128A110B2505
:100F3A000A128A11BD300A128A113E260A128A1131
:100F4A00A72FA72F0A128A116A250A128A112B3A89
:100F5A00031DB02FB12FA72FB22F0A128A110B250A
:100F6A000A128A11C5300A128A113E260A128A11F9
:100F7A00E830F0000330F1000A128A117C250A12C7
:100F8A008A110A128A110B250A128A11D22E8E2F61
:100F9A008718D02FD12F8E2F0A128A110B250A12E9
:100FAA008A11A3300A128A113E260A128A11DB30EC
:100FBA000A128A11B3250A128A11E42FE42F0A129F
:100FCA008A116A250A128A11453A031DED2FEE2F5E
:100FDA00E42FEF2F0A128A110B250A128A11D22E38
:100FEA008E2F8E2F8E2FD22ED22ED22EFC2FFC2F6A
:060FFA000A128A11002812
:02400E00323F3F
:00000001FF
